:020000040800F2
:1000000038040020A90100083D0700084D0400083D
:100010003907000893020008930E00080000000052
:1000200000000000000000000000000019090008A6
:100030009702000800000000CD070008450A0008EC
:10004000C3010008C3010008C3010008C301000880
:10005000C3010008C301000899020008C301000899
:10006000C3010008C3010008C3010008C301000860
:10007000C3010008C3010008C3010008C301000850
:10008000C3010008C3010008C3010008000000000C
:10009000000000000000000000000000C301000894
:1000A000C3010008C3010008C3010008C301000820
:1000B000C3010008C50A0008E10A0008C3010008DE
:1000C000C3010008C3010008C3010008C301000800
:1000D000C3010008110C0008C30100080000000063
:1000E000C3010008C3010008C301000800000000AC
:1000F000000000000000000000000000C301000834
:1001000000000000C3010008C3010008C30100088B
:1001100000000000000000000000000000000000DF
:10012000C3010008C3010008C3010008C30100089F
:10013000C3010008000000000000000000000000F3
:10014000000000000000000000000000C3010008E3
:10015000C3010008C3010008C3010008C30100086F
:10016000C3010008C30100080000000000000000F7
:10017000000000000000000000000000000000007F
:1001800000000000C30100080000000000000000A3
:10019000C3010008DFF80CD000F04AF8004800471F
:1001A0001D14000838040020064880470648004710
:1001B000FEE7FEE7FEE7FEE7FEE7FEE7FEE7FEE717
:1001C000FEE7FEE75D0A0008950100082DE9F05FF3
:1001D0000546002092469B468846064681464024B6
:1001E0001BE0284641464746224600F042F8534667
:1001F0005A46C01A914110D311461846224600F0C3
:1002000029F82D1A67EB01084F46224601200021EC
:1002100000F020F817EB00094E41201EA4F1010464
:10022000DFDC484631462A464346BDE8F09F0000E1
:10023000064C074D06E0E06840F0010394E8070033
:1002400098471034AC42F6D3FFF7A8FF64140008B7
:1002500084140008202A04DB203A00FA02F100206E
:1002600070479140C2F1200320FA03F319439040F4
:100270007047202A04DB203A21FA02F0002170475F
:1002800021FA02F3D040C2F12002914008431946FE
:10029000704700BFFEE7704710B5012000F010F86E
:1002A00028B1034800F0D4F8012000F003F810BD95
:1002B000F71300080149086070470000143C014032
:1002C00001460020034A12680A400AB1012000E0FA
:1002D00000207047143C0140002123498279002A04
:1002E0003AD00A46126803689A430B461A600A1D00
:1002F000126803689A430B1D1A60027911440A6858
:1003000003681A430A60184A0832126803689A435D
:10031000154B08331A601A1D126803689A43124B72
:100320000C331A604279102A0ED11A1F1268036822
:100330001A430D4B08331A601A1D126803681A43DA
:10034000094B0C331A600DE00749427911440A68E1
:1003500003681A430A6005E0027911440A680368D9
:100360009A430A6070470000003C0140F0B50A461D
:1003700000210023002400BF3DE0012505FA01F320
:10038000156805EA03049C4234D105684F00032632
:10039000BE40B543056015794E00B540066835434B
:1003A00005601579012D02D01579022D16D18568C9
:1003B0004F000326BE40B543856055794E00B540D9
:1003C000866835438560456801268E40B5434560A3
:1003D000456896798E40B6B235434560C5684F0092
:1003E0000326BE40B543C560D5794E00B540C6680A
:1003F0003543C560491C1029BFD3F0BDF0B50023BB
:1004000000244D07ED0E02FA05F3CE1000F1200591
:1004100055F826504E07F70E0F26BE40B543CF10B5
:1004200000F1200646F82750CE1000F1200555F8BF
:10043000265045EA0304CE1000F1200545F8264079
:10044000F0BD0A04826170478161704700BFFEE71A
:1004500010B504467048007858B901206E490870FC
:1004600001216E4800F067FB00216C4800F08CFB16
:10047000D1E06948007801284AD1684800F067FB5C
:10048000674908600846006843F2C82188421BD9C2
:100490006348006843F2B061884215D202205E4989
:1004A000087000215D4800F06FFB00205D49087076
:1004B00000BF03E000215C4A1154401C0428F9DB12
:1004C00000205A490870A6E05548006842F60A0123
:1004D000884219D95248006842F6DA71884213D22C
:1004E00000204D49087002204E490870002004E0A9
:1004F0004F49095C4C4A1154401C0428F8DB002188
:10050000464800F041FB86E000204349087082E045
:100510004148007802287ED1404800F018FB40494D
:10052000086008460068B0F51B7F16D908460068C9
:1005300040F25461884210D23C4800784006000ED8
:100540003A4908700846007800F0FE000870394803
:100550000078401C3749087025E03148006840F2B7
:10056000D661884216D92E48006840F6BE218842DE
:1005700010D22E4800784006000E2C49087008461C
:10058000007840F0010008702A480078401C294992
:10059000087008E0002020490870264908702649A4
:1005A00008702249087023480078082810DB0020D2
:1005B000204908701D4800781B491F4A127888544A
:1005C0001D480078401C1C4908700020174908701D
:1005D0001948007804281ADB0020164908701649CB
:1005E00008700D49087001200E49087000200F495D
:1005F000087000BF04E00C49095C0D4A1154401C0E
:100600000428F8DB0021054800F095FAA0470021F6
:10061000024800F0B9FA10BD20000020000400409C
:1006200024000020230000202A00002028000020B1
:100630002E000020210000202200002008B54FF4E9
:10064000A06000F0B9F806208DF8000001208DF8B8
:1006500003008DF801008DF80200684600F070F884
:1006600008BD1CB50121880300F0D2F8002101204B
:1006700000F054F9012000908DF8060000208DF85C
:1006800004000C208DF805006846FFF725FE1CBD10
:100690001CB50121022000F09BF800208DF8040019
:1006A00001208DF8060000908DF8070003208DF8DA
:1006B000050069460148FFF759FE1CBD00040240D1
:1006C00010B5FFF7E5FFFFF7CCFFFFF7B7FF00F02E
:1006D00001F810BD1FB50121022000F089F80020AB
:1006E000ADF80C00ADF806005320ADF804004FF64D
:1006F000FE70029000208DF80E0001A90D4800F058
:1007000045FA012211460B4800F035FA1D208DF8FC
:10071000000001208DF8030002208DF801008DF803
:100720000200684600F00CF80021024800F003FACD
:100730001FBD00000004004000BFFEE7704700003E
:1007400070B5002100230F22C4781CB3174C246815
:1007500004F4E064C4F5E064C4F30721C1F10404C7
:10076000E3B20A4144789C40E1B2847814402143CA
:100770000C07210E0E4C05786155047804F01F0516
:100780000124AC4005786D11AD0005F1E025C5F8F8
:10079000004109E0047804F01F050124AC40054D38
:1007A0000678761145F8264070BD00000CED00E09B
:1007B00000E400E080E100E002490143024A1160E8
:1007C000704700000000FA050CED00E070470000E3
:1007D00029B1064A12680243044B1A6004E0034A36
:1007E00012688243014B1A607047000030380240A3
:1007F00029B1064A12680243044B1A6004E0034A16
:1008000012688243014B1A60704700004038024072
:1008100029B1064A12680243044B1A6004E0034AF5
:1008200012688243014B1A6070470000443802404E
:10083000F0B5002100220024022500260223324FB9
:100840003F6807F00C0121B1042905D0082937D1F0
:1008500005E02E4F076036E02D4F076033E02A4F4A
:100860003F1F3F68C7F38056274F3F1F3F6807F081
:100870003F036EB1264FB7FBF3F7DFF88CC0ACF146
:10088000040CDCF800C0CCF3881C07FB0CF40CE073
:100890001E4FB7FBF3F7DFF870C0ACF1040CDCF8C7
:1008A00000C0CCF3881C07FB0CF4174F3F1F3F68B8
:1008B000C7F301477F1C7D00B4FBF5F7076002E03A
:1008C000124F076000BF00BF0F4F3F6807F0F001F5
:1008D0000909104F7A5C0768D74047600A4F3F68A4
:1008E00007F4E051890A0B4F7A5C4768D74087606C
:1008F000054F3F6807F46041490B064F7A5C476833
:10090000D740C760F0BD0000083802400024F40062
:1009100040787D01000000207047000030B50022C3
:100920008B071C0F0F2303FA04F20B4B8C1053F8A8
:1009300024309343084C8D1044F8253023468C1006
:1009400053F824308C07240F00FA04F42343024C9C
:100950008D1044F8253030BD083801400CB500201A
:10096000019000903348006840F4803031490860BD
:1009700000BF3048006800F4003000900198401C2F
:100980000190009818B90198B0F5A04FF1D129480D
:10099000006800F4003010B10120009001E0002058
:1009A00000900098012844D122484030006840F06F
:1009B00080502049403108601F48006840F44040A2
:1009C0001D4908601B48083000681A490831086052
:1009D0000846006808600846006840F480500860D7
:1009E0001648091F0860081F006840F08070091F42
:1009F000086000BF0F48006800F000700028F9D0C0
:100A000040F202700E4908600A480830006820F081
:100A100003000849083108600846006840F00200F9
:100A2000086000BF03480830006800F00C00082888
:100A3000F8D10CBD00380240007000401954410745
:100A4000003C02400448006820B103480068401E92
:100A500001490860704700001000002010B51548DB
:100A6000006840F47000134908601348006840F0C3
:100A700001001149086000200F49083108600E4844
:100A800000680E4908400C4908600D48091D0860BF
:100A9000081F006820F48020091F08600020064914
:100AA0000C310860FFF75AFF4FF0006001498039B0
:100AB000086010BD88ED00E000380240FFFFF6FE40
:100AC0001030002410B50121044800F043F818B19B
:100AD0000121024800F02CF810BD00000004004085
:100AE00010B501210F4800F035F8D0B10E4800785C
:100AF00020B101210D48FFF7A7FC03E001210B48BD
:100B0000FFF79FFC08480078401C0749087008461A
:100B10000078022801DB002008700121014800F064
:100B200007F810BD00080040290000200000024026
:100B3000CA430282704721B1028842F0010202805A
:100B400004E002884FF6FE731A40028070470146A7
:100B5000486A704730B50246002000230024158AF9
:100B600005EA0103958905EA010413B10CB10120DE
:100B700000E0002030BD1AB183890B43838102E07D
:100B800083898B43838170474162704700220288CA
:100B9000184B98420ED0184B98420BD0B0F1804FB2
:100BA00008D0164B984205D0154B984202D0154BF1
:100BB000984204D14FF68F731A404B881A43124B58
:100BC000984207D0114B984204D04FF6FF431A4089
:100BD0000B891A4302804B68C3620B880385054B5F
:100BE000984202D0044B984201D18B7A03860123AC
:100BF000838270470000014000040140000400406F
:100C000000080040000C00400010004000140040AC
:100C100010B5002440F22551344800F09DF800281A
:100C200062D0324800F02CF9C4B231480078002874
:100C300037D130483049097844542F480078401C57
:100C40002D49087008460078042801DD002008704E
:100C500028480078732842D12648407874283ED12D
:100C60002448807861283AD12248C078722836D149
:100C700020480079742832D101201D4908700020D5
:100C800003E000211B4A1154401C0528F9DB002019
:100C90001949087019A000F05DF900201949086091
:100CA0001DE013480078012819D113480078401C32
:100CB00011490870134800682043124908600E4823
:100CC0000078042806D102200949087000200A494A
:100CD000087004E00B48006800020A49086040F20E
:100CE0002551024800F010F810BD0000001001402E
:100CF0001B000020140000201A0000206461743AD8
:100D00000D0A00001C00002010B50022002340F650
:100D10006A14A14200D100BF0A1201249440A3B278
:100D2000DC43048010BD21B1828942F400528281EB
:100D300004E082894DF6FF731A40828170470246B3
:100D40000020B1F5007F00D100BF13880B400BB12C
:100D5000012000E00020704770B502460024002307
:100D60000025002040F66A16B14200D100BFC1F351
:100D7000421501F01F03012606FA03F3012D02D1EB
:100D80009689334006E0022D02D1168A334001E0F5
:100D9000968A33400C12012606FA04F41688344071
:100DA00013B10CB1012000E0002070BD2DE9FF4718
:100DB00005460E460024A14600BFA046B08900B1FA
:100DC00000BF2C8A24F44054F08804432C82AC8960
:100DD00041F20C608443B08831890843718908432B
:100DE0000443AC81AC8A24F44074B0890443AC82DF
:100DF0006846FFF71DFD2048854202D01F48854206
:100E000002D1DDF80C9001E0DDF80890A88900F42B
:100E1000004040B109EBC90000EB091031684900FE
:100E2000B0FBF1F707E009EBC90000EB09103168EE
:100E30008900B0FBF1F76420B7FBF0F00401200952
:100E4000642101FB1078A88900F4004040B13220F1
:100E500000EBC800B0FBF1F000F00700044308E02D
:100E6000322000EB08106421B0FBF1F000F00F001D
:100E700004432C81BDE8FF870010014000140140AD
:100E800001468888C0F308007047C1F308028280D9
:100E9000704700BFFEE700001CB501210846FFF7C0
:100EA00097FC072209210E48FFF7A8FA07220A211A
:100EB0000B48FFF7A3FA02208DF8040000208DF8FC
:100EC00006004FF4C060009000208DF8070003205A
:100ED0008DF8050069460248FFF748FA1CBD00007E
:100EE0000000024008B54FF4A060FFF765FC252024
:100EF0008DF8000001208DF8030002208DF801001C
:100F00008DF802006846FFF71BFC08BD1FB5FFF710
:100F1000C3FFFFF7E7FF01211020FFF779FC4FF433
:100F2000165000900020ADF80C000C20ADF80A001F
:100F30000020ADF80800ADF80600ADF804006946E1
:100F40000348FFF733FF01210148FFF7ECFE1FBD07
:100F5000001001400FB4054B10B503A9044A0298D4
:100F600000F018F810BC5DF814FB0000F91300083D
:100F70003400002002E008C8121F08C1002AFAD17C
:100F800070477047002001E001C1121F002AFBD109
:100F9000704700002DE9FF4F8DB00F460546002633
:100FA00006E025280BD0DDE90F1290476D1C761C5A
:100FB00028780028F5D111B03046BDE8F08F002424
:100FC000A246A1460122EC4900E0044315F8013F86
:100FD000203B02FA03F00842F7D128782A2810D0E3
:100FE0006FF02F022878A0F13001092914D80AEBFC
:100FF0008A0102EB410144F0020400EB010A6D1C7E
:10100000F0E701CF5FEA000A03D544F40054CAF1C7
:10101000000A44F002046D1C28782E2817D115F818
:10102000010F44F004042A280ED06FF02F02287814
:10103000A0F1300109290AD809EB890102EB41012D
:1010400000EB01096D1CF2E757F8049B6D1C287832
:101050006C280FD006DC4C2817D068280DD06A28E1
:1010600014D104E0742810D07A280FD10DE044F494
:1010700000140AE044F4801401E044F44014697858
:10108000814202D104F580146D1C6D1C2A786E2AF1
:101090001FD00CDC632A31D004DC002A8BD0582A04
:1010A00011D1A3E0642A68D0692A0CD165E0732AC3
:1010B0002ED004DC6F2A73D0702A04D19BE0752AED
:1010C0006FD0782A6ED01046DDE90F129047761C5B
:1010D00050E1C4F30250022806D0032809D00428A6
:1010E00001CF09D0066045E101CFF117C0E90061E9
:1010F00040E101CF06803DE106703BE117F8040BAB
:101100008DF8000000208DF80100EB46012003E07F
:1011100057F804BB4FF0FF3061074FF0000102D4D5
:101120000DE008F10101884649450FDA8045F8DBFA
:101130001BF808100029F4D108E008F101018846E5
:101140008142FADB1BF808100029F6D1DDE90F23F4
:10115000AAEB08008146214600F036F9304400EB46
:10116000080604E0DDE90F121BF8010B9047B8F107
:101170000108F7D221464846F7E00A21C4F302539A
:101180004FF0000B0891022B04D001CFC117032BA5
:1011900009D00AE0FF1D27F00707F7E8020108E081
:1011A00032E01FE020E000B2C117042B01D140B2B1
:1011B000C117031E71F1000307DA4FF0000CD0EBEA
:1011C0000C006CEB01012D2302E0230504D52B2339
:1011D0008DF82430012303E0E30701D02023F7E753
:1011E000984658E00A2110E010210EE010204FF040
:1011F000000B08900CE010214FF0000B44F00404A9
:101200004FF00809089103E008214FF0000B089106
:10121000C4F30253022B04D001CF0021032B06D0CC
:1012200006E0FF1D27F00707F7E8020103E080B2A0
:10123000042B00D1C0B24FF0000823072BD5702A31
:1012400007D0DDF820C08CF0100C5CEA0B0C05D048
:101250000EE040238DF82430012308E050EA01031A
:1012600006D030238DF824308DF8252002239846AF
:10127000DDF820C08CF0080C5CEA0B0C0BD150EAB6
:10128000010301D1630706D530238DF824304FF0D8
:101290000108A9F10109582A04D038A20B9208AA22
:1012A0000A920BE03AA2F9E75B46089AFEF78EFF36
:1012B0000B9B9B5C0A9A521E0A92137050EA010221
:1012C000F2D10A98ADEB000000F1200B600702D5C7
:1012D00024F4803401E04FF00109D94502DDA9EB87
:1012E0000B0000E0002000EB0B0141440890AAEB4A
:1012F000010AE00306D4DDE90F232146504600F041
:1013000063F806444FF0000908E009A911F8090044
:10131000DDE90F12904709F10109761CC145F4DBA4
:10132000E0030CD5DDE90F232146504600F04CF8D0
:10133000064404E0DDE90F1230209047761C08993E
:10134000481E08900029F5DC08E00A980A99007800
:10135000491C0A91DDE90F129047761CBBF1000190
:10136000ABF1010BF1DC21465046DDE90F2300F023
:1013700019F806446D1C1BE6092801003031323390
:1013800034353637383961626364656600000000C1
:1013900030313233343536373839414243444546AB
:1013A000000000002DE9F041044600251E461746C6
:1013B000880404D405E039462020B0476D1C641E23
:1013C000F9D52846BDE8F0812DE9F0410446002515
:1013D0001E469046C80301D5302700E02027880428
:1013E00004D505E041463846B0476D1C641EF9D56A
:1013F0002846BDE8F081704770B504460D46E1B25D
:101400000548FFF742FD00BF80210348FFF797FC26
:101410000028F9D0204670BD00100140FFF750F9B8
:10142000FFF774FD12E00A48007878B1002405E067
:101430000848015D08A0FFF78DFD641C042CF7DB54
:1014400007A0FFF787FD002001490870EBE70000C7
:10145000230000202A000020307825325820000088
:101460000D0A00008414000800000020380000006D
:10147000740F0008BC1400083800002000040000AD
:10148000840F0008000000000102030401020304AD
:10149000060708090000000000000000000000002E
:1014A000000000000000000000000000000000003C
:0C14B00000000000000000000000000030
:04000005080001A945
:00000001FF
