:020000040800F2
:1000000050040020A9010008E50800084504000884
:10001000E1080008F101000863100008000000007A
:10002000000000000000000000000000E90A0008D5
:10003000F5010008000000009D090008150C0008EB
:10004000C3010008C3010008C3010008C301000880
:10005000C3010008C301000891020008C3010008A1
:10006000C3010008C3010008C3010008C301000860
:10007000C3010008C3010008C3010008C301000850
:10008000C3010008C3010008C3010008000000000C
:10009000000000000000000000000000C301000894
:1000A000C3010008C3010008C3010008C301000820
:1000B000C3010008950C0008B10C0008C30100083A
:1000C000C3010008C3010008C3010008C301000800
:1000D000C3010008E10D0008C30100080000000092
:1000E000C3010008C3010008C301000800000000AC
:1000F000000000000000000000000000C301000834
:1001000000000000C3010008C3010008C30100088B
:1001100000000000000000000000000000000000DF
:10012000C3010008C3010008C3010008C30100089F
:10013000C3010008000000000000000000000000F3
:10014000000000000000000000000000C3010008E3
:10015000C3010008C3010008C3010008C30100086F
:10016000C3010008C30100080000000000000000F7
:10017000000000000000000000000000000000007F
:1001800000000000C30100080000000000000000A3
:10019000C3010008DFF80CD000F018F80048004751
:1001A0009D1100085004002006488047064800477B
:1001B000FEE7FEE7FEE7FEE7FEE7FEE7FEE7FEE717
:1001C000FEE7FEE72D0C000895010008064C074DE0
:1001D00006E0E06840F0010394E807009847103417
:1001E000AC42F6D3FFF7DAFFD0110008F011000897
:1001F00000BFFEE7704710B5044603E04FF47A7085
:1002000000F006F8201EA4F10104F7D110BD000093
:1002100070B505461B4800681B49B0FBF1F0441E51
:10022000601EB0F1807F00D30FE0601E4FF0E02130
:1002300048610F214FF0FF3000F09CFB00204FF091
:10024000E02188610720086100BF0021481E00F0FE
:1002500091FB0E4805604FF0E020006940F001007E
:100260004FF0E021086100BF084800680028FBD17A
:100270004FF0E020006920F001004FF0E02108611C
:1002800070BD00000000002040420F00240000204C
:1002900010B5012000F010F828B1034800F0D4F8A0
:1002A000012000F003F810BD751100080149086035
:1002B00070470000143C014001460020034A1268C8
:1002C0000A400AB1012000E000207047143C0140C0
:1002D000002123498279002A3AD00A46126803682D
:1002E0009A430B461A600A1D126803689A430B1D55
:1002F0001A60027911440A6803681A430A60184AAE
:100300000832126803689A43154B08331A601A1DA5
:10031000126803689A43124B0C331A604279102A10
:100320000ED11A1F126803681A430D4B08331A6066
:100330001A1D126803681A43094B0C331A600DE04A
:100340000749427911440A6803681A430A6005E0C4
:10035000027911440A6803689A430A6070470000F2
:10036000003C0140F0B50A4600210023002400BFF4
:100370003DE0012505FA01F3156805EA03049C42F6
:1003800034D105684F000326BE40B543056015799A
:100390004E00B5400668354305601579012D02D041
:1003A0001579022D16D185684F000326BE40B5434E
:1003B000856055794E00B54086683543856045684F
:1003C00001268E40B5434560456896798E40B6B2A9
:1003D00035434560C5684F000326BE40B543C56040
:1003E000D5794E00B540C6683543C560491C102913
:1003F000BFD3F0BDF0B5002300244D07ED0E02FA87
:1004000005F3CE1000F1200555F826504E07F70EE3
:100410000F26BE40B543CF1000F1200646F8275006
:10042000CE1000F1200555F8265045EA0304CE1001
:1004300000F1200545F82640F0BD0A0482617047AE
:100440008161704700BFFEE710B504466E48007832
:1004500038B901206C49087000216C4800F07CFC20
:10046000D1E06948007801284AD1684800F057FC7B
:10047000674908600846006843F2C82188421BD9D2
:100480006348006843F2B061884215D202205E4999
:10049000087000215D4800F05FFC00205D49087095
:1004A00000BF03E000215C4A1154401C0428F9DB22
:1004B00000205A490870A6E05548006842F60A0133
:1004C000884219D95248006842F6DA71884213D23C
:1004D00000204D49087002204E490870002004E0B9
:1004E0004F49095C4C4A1154401C0428F8DB002198
:1004F000464800F031FC86E000204349087082E065
:100500004148007802287ED101034648FFF795FF55
:100510003E4800F004FC3E49086008460068B0F51B
:100520001B7F16D90846006840F25461884210D2F9
:100530003A4800784006000E3849087008460078AE
:1005400000F0FE00087038480078401C36490870FA
:1005500025E02F48006840F2D661884216D92C4821
:10056000006840F6BE21884210D22C480078400630
:10057000000E2A4908700846007840F00100087013
:1005800029480078401C2849087008E000201E49CE
:1005900008702549087025490870204908702248CC
:1005A0000078082810DB00201F4908701B480078DD
:1005B00019491E4A127888541C480078401C1B496F
:1005C000087000201549087018480078042816DBC8
:1005D000002015490870154908700B490870012062
:1005E0000C49087000200D49087000BF04E00A495A
:1005F000095C0B4A1154401C0428F8DBA047002179
:10060000024800F0A9FB10BD3400002000040040A7
:1006100038000020370000203E0000203C00002071
:100620004200002000080240350000203600002073
:1006300008B54FF4A06000F093F906208DF8000093
:1006400001208DF803008DF801008DF80200684646
:1006500000F04AF908BD1CB50121880300F0C0F97B
:100660000021012000F042FA012000908DF80600E0
:1006700000208DF804000C208DF805006846FFF777
:1006800027FE1CBD1CB50121022000F089F90020C5
:100690008DF8040001208DF8060000908DF8070009
:1006A00003208DF8050069460148FFF75BFE1CBD7D
:1006B0000004024010B5FFF7E5FFFFF7CCFFFFF79E
:1006C000B7FF00F001F810BD1FB50121022000F0B6
:1006D00077F90020ADF80C00ADF806005320ADF816
:1006E00004004FF6FE70029000208DF80E0001A964
:1006F0000D4800F033FB012211460B4800F023FBAC
:100700001D208DF8000001208DF8030002208DF8D7
:1007100001008DF80200684600F0E6F80121024869
:1007200000F0F1FA1FBD0000000400402DE9F04187
:1007300005460E4600BF01214048FFF77EFE00211E
:100740003F4800F009FB01213D4800F0DCFA42F28D
:100750002830FFF75DFD0021394800F0D4FA01216F
:100760003648FFF76AFE41F29410FFF751FD00BFD3
:1007700000244BE02F5D4FF0000843E007F08000BD
:10078000F0B100BF01212D48FFF757FE00212C4892
:1007900000F0E2FA01212A4800F0B5FA40F2712097
:1007A000FFF736FD0021264800F0ADFA012123486D
:1007B000FFF743FE4FF4C860FFF72AFD00BF1EE0BD
:1007C00000BF01211D48FFF738FE00211C4800F042
:1007D000C3FA01211A4800F096FA4FF41B70FFF794
:1007E00017FD0021164800F08EFA01211348FFF78B
:1007F00024FE4FF4FA70FFF70BFD00BF00BF7F002F
:1008000008F10108B8F1080FB8DB641CB442B1D399
:1008100001210B4800F077FA40F28A20FFF7F8FC3C
:100820000021074800F06FFA01210448FFF705FE98
:100830002820FFF7E0FCBDE8F08100000000024046
:10084000000800401CB50121084600F0A9F801206D
:100850008DF804008DF8060000908DF80700032045
:100860008DF8050069460248FFF77CFD1CBD0000BD
:100870000000024010B500F003F8FFF7E3FF10BDE1
:100880001FB50121042000F09BF80020ADF80C00FA
:10089000ADF80600DC20ADF8040004200290002032
:1008A0008DF80E0001A90D4800F058FA01221146FA
:1008B0000A4800F048FA1E208DF8000001208DF84B
:1008C00003008DF8010002208DF80200684600F058
:1008D0000BF80021014800F016FA1FBD0008004087
:1008E00000BFFEE77047000070B5002100230F2213
:1008F000C4781CB3174C246804F4E064C4F5E064C5
:10090000C4F30721C1F10404E3B20A4144789C40D6
:10091000E1B28478144021430C07210E0E4C057877
:100920006155047804F01F050124AC4005786D1171
:10093000AD0005F1E025C5F8004109E0047804F0B8
:100940001F050124AC40054D0678761145F8264078
:1009500070BD00000CED00E000E400E080E100E08C
:1009600002490143024A1160704700000000FA0585
:100970000CED00E010B5002807DA0A07140E054A4E
:1009800000F00F031B1FD45403E00A07130E024AA2
:10099000135410BD18ED00E000E400E070470000C3
:1009A00029B1064A12680243044B1A6004E0034A64
:1009B00012688243014B1A607047000030380240D1
:1009C00029B1064A12680243044B1A6004E0034A44
:1009D00012688243014B1A607047000040380240A1
:1009E00029B1064A12680243044B1A6004E0034A24
:1009F00012688243014B1A6070470000443802407D
:100A0000F0B5002100220024022500260223324FE7
:100A10003F6807F00C0121B1042905D0082937D11E
:100A200005E02E4F076036E02D4F076033E02A4F78
:100A30003F1F3F68C7F38056274F3F1F3F6807F0AF
:100A40003F036EB1264FB7FBF3F7DFF88CC0ACF174
:100A5000040CDCF800C0CCF3881C07FB0CF40CE0A1
:100A60001E4FB7FBF3F7DFF870C0ACF1040CDCF8F5
:100A700000C0CCF3881C07FB0CF4174F3F1F3F68E6
:100A8000C7F301477F1C7D00B4FBF5F7076002E068
:100A9000124F076000BF00BF0F4F3F6807F0F00123
:100AA0000909104F7A5C0768D74047600A4F3F68D2
:100AB00007F4E051890A0B4F7A5C4768D74087609A
:100AC000054F3F6807F46041490B064F7A5C476861
:100AD000D740C760F0BD0000083802400024F40091
:100AE00040787D01140000207047000030B50022DE
:100AF0008B071C0F0F2303FA04F20B4B8C1053F8D7
:100B000024309343084C8D1044F8253023468C1034
:100B100053F824308C07240F00FA04F42343024CCA
:100B20008D1044F8253030BD083801400CB5002048
:100B3000019000903348006840F4803031490860EB
:100B400000BF3048006800F4003000900198401C5D
:100B50000190009818B90198B0F5A04FF1D129483B
:100B6000006800F4003010B10120009001E0002086
:100B700000900098012844D122484030006840F09D
:100B800080502049403108601F48006840F44040D0
:100B90001D4908601B48083000681A490831086080
:100BA0000846006808600846006840F48050086005
:100BB0001648091F0860081F006840F08070091F70
:100BC000086000BF0F48006800F000700028F9D0EE
:100BD00040F202700E4908600A480830006820F0B0
:100BE00003000849083108600846006840F0020028
:100BF000086000BF03480830006800F00C000828B7
:100C0000F8D10CBD00380240007000401954410773
:100C1000003C02400448006820B103480068401EC0
:100C200001490860704700002400002010B51548F5
:100C3000006840F47000134908601348006840F0F1
:100C400001001149086000200F49083108600E4872
:100C500000680E4908400C4908600D48091D0860ED
:100C6000081F006820F48020091F08600020064942
:100C70000C310860FFF75AFF4FF0006001498039DE
:100C8000086010BD88ED00E000380240FFFFF6FE6E
:100C90001030002410B50121044800F043F818B1C9
:100CA0000121024800F02CF810BD000000040040B3
:100CB00010B501210F4800F035F8D0B10E4800788A
:100CC00020B101210D48FFF7BBFB03E001210B48D8
:100CD000FFF7B3FB08480078401C07490870084636
:100CE0000078022801DB002008700121014800F093
:100CF00007F810BD000800403D0000200000024041
:100D0000CA430282704721B1028842F00102028088
:100D100004E002884FF6FE731A40028070470146D5
:100D2000486A704730B50246002000230024158A27
:100D300005EA0103958905EA010413B10CB101200C
:100D400000E0002030BD1AB183890B43838102E0AB
:100D500083898B43838170474162704700220288F8
:100D6000184B98420ED0184B98420BD0B0F1804FE0
:100D700008D0164B984205D0154B984202D0154B1F
:100D8000984204D14FF68F731A404B881A43124B86
:100D9000984207D0114B984204D04FF6FF431A40B7
:100DA0000B891A4302804B68C3620B880385054B8D
:100DB000984202D0044B984201D18B7A03860123DA
:100DC000838270470000014000040140000400409D
:100DD00000080040000C00400010004000140040DB
:100DE00010B5002440F22551344800F09DF8002849
:100DF00062D0324800F02CF9C4B2314800780028A3
:100E000037D130483049097844542F480078401C85
:100E10002D49087008460078042801DD002008707C
:100E200028480078732842D12648407874283ED15B
:100E30002448807861283AD12248C078722836D177
:100E400020480079742832D101201D490870002003
:100E500003E000211B4A1154401C0528F9DB002047
:100E60001949087019A000F05DF9002019490860BF
:100E70001DE013480078012819D113480078401C60
:100E800011490870134800682043124908600E4851
:100E90000078042806D102200949087000200A4978
:100EA000087004E00B48006800020A49086040F23C
:100EB0002551024800F010F810BD0000001001405C
:100EC0002F000020280000202E0000206461743ACA
:100ED0000D0A00003000002010B50022002340F66B
:100EE0006A14A14200D100BF0A1201249440A3B2A7
:100EF000DC43048010BD21B1828942F4005282811A
:100F000004E082894DF6FF731A40828170470246E1
:100F10000020B1F5007F00D100BF13880B400BB15A
:100F2000012000E00020704770B502460024002335
:100F30000025002040F66A16B14200D100BFC1F37F
:100F4000421501F01F03012606FA03F3012D02D119
:100F50009689334006E0022D02D1168A334001E023
:100F6000968A33400C12012606FA04F4168834409F
:100F700013B10CB1012000E0002070BD2DE9FF4746
:100F800005460E460024A14600BFA046B08900B128
:100F900000BF2C8A24F44054F08804432C82AC898E
:100FA00041F20C608443B088318908437189084359
:100FB0000443AC81AC8A24F44074B0890443AC820D
:100FC0006846FFF71DFD2048854202D01F48854234
:100FD00002D1DDF80C9001E0DDF80890A88900F45A
:100FE000004040B109EBC90000EB0910316849002D
:100FF000B0FBF1F707E009EBC90000EB091031681D
:101000008900B0FBF1F76420B7FBF0F00401200980
:10101000642101FB1078A88900F4004040B132201F
:1010200000EBC800B0FBF1F000F00700044308E05B
:10103000322000EB08106421B0FBF1F000F00F004B
:1010400004432C81BDE8FF870010014000140140DB
:1010500001468888C0F308007047C1F30802828007
:10106000704700BFFEE700001CB501210846FFF7EE
:1010700097FC072209210E48FFF7BCF907220A2135
:101080000B48FFF7B7F902208DF8040000208DF817
:1010900006004FF4C060009000208DF80700032088
:1010A0008DF8050069460248FFF75CF91CBD000099
:1010B0000000024008B54FF4A060FFF751FC252066
:1010C0008DF8000001208DF8030002208DF801004A
:1010D0008DF802006846FFF707FC08BD1FB5FFF753
:1010E000C3FFFFF7E7FF01211020FFF779FC4FF462
:1010F000165000900020ADF80C000C20ADF80A004E
:101100000020ADF80800ADF80600ADF8040069460F
:101110000348FFF733FF01210148FFF7ECFE1FBD35
:1011200000100140014A024900F013B8791100088B
:101130004800002002E008C8121F08C1002AFAD1A6
:1011400070477047002001E001C1121F002AFBD147
:1011500070472DE9F04116460F460446002503E08E
:101160003946B047641C6D1C20780028F8D1284609
:10117000BDE8F0817047000070B504460D46E1B24D
:101180000548FFF76AFF00BF80210348FFF7BFFE55
:101190000028F9D0204670BD001001401CB509A1FF
:1011A00003C9CDE90001FFF785FAFFF763FBFFF7FD
:1011B00095FF06A0FFF7B6FF05216846FFF7B6FAD0
:1011C00000BFFEE71068800300000000313200001D
:1011D000F0110008000000204C000000341100084D
:1011E0003C1200084C0000200404000044110008D8
:1011F00000BD010500000000000000000102030422
:1012000006070809000000000102030401020304AC
:1012100006070809000000000000000000000000B0
:1012200000000000000000000000000000000000BE
:0C123000000000000000000000000000B2
:04000005080001A945
:00000001FF
